:020000040800F2
:1000000000000220712B0008D12A0008D32A000822
:10001000D52A0008D72A0008D92A000800000000C5
:10002000000000000000000000000000DB2A0008C3
:10003000DD2A000800000000DF2A0008E12A00088D
:10004000C12B0008C12B0008C12B0008C12B0008E0
:10005000C12B0008C12B0008C12B0008C12B0008D0
:10006000C12B0008C12B0008C12B0008C12B0008C0
:10007000C12B0008C12B0008C12B0008C12B0008B0
:10008000C12B0008C12B0008C12B0008C12B0008A0
:10009000C12B0008C12B0008C12B0008C12B000890
:1000A000C12B0008C12B0008C12B0008C12B000880
:1000B000C12B0008C12B0008C12B0008C12B000870
:1000C000C12B0008C12B0008C12B0008C12B000860
:1000D000C12B0008C12B0008C12B0008C12B000850
:1000E000C12B0008C12B0008C12B0008C12B000840
:1000F000C12B0008C12B0008C12B0008C12B000830
:10010000C12B0008C12B0008C12B0008C12B00081F
:10011000C12B0008C12B0008C12B0008C12B00080F
:10012000C12B0008C12B0008C12B0008C12B0008FF
:10013000C12B00080000000000000000C12B0008D7
:10014000C12B0008C12B0008C12B0008C12B0008DF
:10015000C12B0008C12B0008C12B0008C12B0008CF
:10016000C12B0008C12B0008C12B0008C12B0008BF
:10017000C12B0008C12B0008C12B000800000000A3
:1001800000000000C12B000800000000000000007B
:10019000C12B00080000000000000000C12B000877
:1001A000000000000000000000000000C12B00085B
:1001B000C12B0008C12B0008C12B0008C12B00086F
:0401C000C12B000847
:1001D00010B5054C237833B9044B13B10448AFF381
:1001E00000800123237010BD70000020000000007B
:1001F0003434000808B5034B1BB103490348AFF37F
:10020000008008BD000000007400002034340008A5
:1002100081F0004102E000BF83F0004330B54FEAB7
:1002200041044FEA430594EA050F08BF90EA020F24
:100230001FBF54EA000C55EA020C7FEA645C7FEAB7
:10024000655C00F0E2804FEA5454D4EB5555B8BFDA
:100250006D420CDD2C4480EA020281EA030382EA4B
:10026000000083EA010180EA020281EA0303362DDD
:1002700088BF30BD11F0004F4FEA01314FF4801CB0
:100280004CEA113102D0404261EB410113F0004FC2
:100290004FEA03334CEA133302D0524263EB430379
:1002A00094EA050F00F0A780A4F10104D5F1200E17
:1002B0000DDB02FA0EFC22FA05F2801841F1000172
:1002C00003FA0EF2801843FA05F359410EE0A5F146
:1002D00020050EF1200E012A03FA0EFC28BF4CF077
:1002E000020C43FA05F3C01851EBE37101F000452D
:1002F00007D54FF0000EDCF1000C7EEB00006EEB3A
:100300000101B1F5801F1BD3B1F5001F0CD34908C3
:100310005FEA30004FEA3C0C04F101044FEA44521A
:1003200012F5800F80F09A80BCF1004F08BF5FEAA1
:10033000500C50F1000041EB045141EA050130BD81
:100340005FEA4C0C404141EB010111F4801FA4F124
:100350000104E9D191F0000F04BF01460020B1FA79
:1003600081F308BF2033A3F10B03B3F120020CDAB1
:100370000C3208DD02F1140CC2F10C0201FA0CF08F
:1003800021FA02F10CE002F11402D8BFC2F1200CF4
:1003900001FA02F120FA0CFCDCBF41EA0C019040AA
:1003A000E41AA2BF01EB0451294330BD6FEA0404F3
:1003B0001F3C1CDA0C340EDC04F11404C4F12002DE
:1003C00020FA04F001FA02F340EA030021FA04F3F0
:1003D00045EA030130BDC4F10C04C4F1200220FA47
:1003E00002F001FA04F340EA0300294630BD21FA85
:1003F00004F0294630BD94F0000F83F4801306BF4B
:1004000081F480110134013D4EE77FEA645C18BF3E
:100410007FEA655C29D094EA050F08BF90EA020FD5
:1004200005D054EA000C04BF1946104630BD91EACD
:10043000030F1EBF0021002030BD5FEA545C05D1D0
:100440004000494128BF41F0004130BD14F580040F
:100450003CBF01F5801130BD01F0004545F0FE4183
:1004600041F470014FF0000030BD7FEA645C1ABFB8
:10047000194610467FEA655C1CBF0B46024650EAEF
:10048000013406BF52EA033591EA030F41F400211B
:1004900030BD00BF90F0000F04BF0021704730B5A1
:1004A0004FF4806404F132044FF000054FF0000176
:1004B00050E700BF90F0000F04BF0021704730B537
:1004C0004FF4806404F1320410F0004548BF40420C
:1004D0004FF000013EE700BF42004FEAE2014FEA61
:1004E00031014FEA02701FBF12F07F4393F07F4F3C
:1004F00081F06051704732F07F4208BF704793F03F
:100500007F4F04BF41F40021704730B54FF4607451
:1005100001F0004521F000411CE700BF50EA010254
:1005200008BF704730B54FF000050AE050EA0102FD
:1005300008BF704730B511F0004502D5404261EB6D
:1005400041014FF4806404F132045FEA915C3FF4AE
:10055000D8AE4FF003025FEADC0C18BF03325FEA4B
:10056000DC0C18BF033202EBDC02C2F1200300FAFC
:1005700003FC20FA02F001FA03FE40EA0E0021FA21
:1005800002F11444BDE600BF70B54FF0FF0C4CF40F
:10059000E06C1CEA11541DBF1CEA135594EA0C0FC1
:1005A00095EA0C0F00F0DEF82C4481EA030621EAFC
:1005B0004C5123EA4C5350EA013518BF52EA033537
:1005C00041F4801143F4801338D0A0FB02CE4FF0E9
:1005D0000005E1FB02E506F00042E0FB03E54FF019
:1005E0000006E1FB03569CF0000F18BF4EF0010E11
:1005F000A4F1FF04B6F5007F64F5407404D25FEA0D
:100600004E0E6D4146EB060642EAC62141EA5551BF
:100610004FEAC52040EA5E504FEACE2EB4F1FD0C01
:1006200088BFBCF5E06F1ED8BEF1004F08BF5FEA7F
:10063000500E50F1000041EB045170BD06F0004631
:1006400046EA010140EA020081EA0301B4EB5C04DE
:10065000C2BFD4EB0C0541EA045170BD41F48011D6
:100660004FF0000E013C00F3AB8014F1360FDEBFFB
:10067000002001F0004170BDC4F10004203C35DAD7
:100680000C341BDC04F11404C4F1200500FA05F35A
:1006900020FA04F001FA05F240EA020001F00042FB
:1006A00021F0004110EBD37021FA04F642EB060171
:1006B0005EEA430E08BF20EAD37070BDC4F10C049B
:1006C000C4F1200500FA04F320FA05F001FA04F25F
:1006D00040EA020001F0004110EBD37041F100014B
:1006E0005EEA430E08BF20EAD37070BDC4F1200556
:1006F00000FA05F24EEA020E20FA04F301FA05F2BE
:1007000043EA020321FA04F001F0004121FA04F265
:1007100020EA020000EBD3705EEA430E08BF20EA35
:10072000D37070BD94F0000F0FD101F0004640006F
:1007300041EB010111F4801F08BF013CF7D041EAF1
:10074000060195F0000F18BF704703F000465200F5
:1007500043EB030313F4801F08BF013DF7D043EAC6
:100760000603704794EA0C0F0CEA135518BF95EA7C
:100770000C0F0CD050EA410618BF52EA4306D1D103
:1007800081EA030101F000414FF0000070BD50EA22
:10079000410606BF1046194652EA430619D094EAAC
:1007A0000C0F02D150EA013613D195EA0C0F05D196
:1007B00052EA03361CBF104619460AD181EA0301EA
:1007C00001F0004141F0FE4141F470014FF00000A2
:1007D00070BD41F0FE4141F4780170BD70B54FF03D
:1007E000FF0C4CF4E06C1CEA11541DBF1CEA1355BD
:1007F00094EA0C0F95EA0C0F00F0A7F8A4EB05049F
:1008000081EA030E52EA03354FEA013100F0888095
:100810004FEA03334FF0805545EA131343EA12635E
:100820004FEA022245EA111545EA10654FEA002613
:100830000EF000419D4208BF964244F1FD0404F5CC
:10084000407402D25B084FEA3202B61A65EB030528
:100850005B084FEA32024FF480104FF4002CB6EBE5
:10086000020E75EB030E22BFB61A754640EA0C0065
:100870005B084FEA3202B6EB020E75EB030E22BFA5
:10088000B61A754640EA5C005B084FEA3202B6EBE6
:10089000020E75EB030E22BFB61A754640EA9C00A5
:1008A0005B084FEA3202B6EB020E75EB030E22BF75
:1008B000B61A754640EADC0055EA060E18D04FEA33
:1008C000051545EA16754FEA06164FEAC30343EAD3
:1008D00052734FEAC2025FEA1C1CC0D111F4801FA0
:1008E0000BD141EA00014FF000004FF0004CB6E799
:1008F00011F4801F04BF01430020B4F1FD0C88BF38
:10090000BCF5E06F3FF6AFAEB5EB030C04BFB6EB42
:10091000020C5FEA500C50F1000041EB045170BD35
:100920000EF0004E4EEA113114EB5C04C2BFD4EB62
:100930000C0541EA045170BD41F480114FF0000EE6
:10094000013C90E645EA060E8DE60CEA135594EA62
:100950000C0F08BF95EA0C0F3FF43BAF94EA0C0F65
:100960000AD150EA01347FF434AF95EA0C0F7FF4DA
:1009700025AF104619462CE795EA0C0F06D152EA2E
:1009800003353FF4FDAE1046194622E750EA410612
:1009900018BF52EA43067FF4C5AE50EA41047FF423
:1009A0000DAF52EA43057FF4EBAE12E74FEA410286
:1009B000B2F1E04324BFB3F5001CDCF1FE5C0DD9BD
:1009C00001F0004C4FEAC0024CEA5070B2F1004F07
:1009D00040EB830008BF20F00100704711F0804F0A
:1009E00021D113F13872BCBF01F00040704741F4CF
:1009F00080114FEA5252C2F11802C2F1200C10FAD3
:100A00000CF320FA02F018BF40F001004FEAC123B6
:100A10004FEAD32303FA0CFC40EA0C0023FA02F35A
:100A20004FEA4303CCE77FEA625307D150EA013330
:100A30001EBF4FF0FE4040F44000704701F0004000
:100A400040F0FE4040F40000704700BF53B94AB97F
:100A5000002908BF00281CBF4FF0FF314FF0FF30C6
:100A600000F072B9ADF1080C6DE904CE00F006F8A3
:100A7000DDF804E0DDE9022304B070472DE9F0471A
:100A8000089E04468846002B4BD18A42154667D9FA
:100A9000B2FA82F24AB1C2F1200701FA02F320FA57
:100AA00007F7954047EA030894404FEA154E230C98
:100AB000B8FBFEF71FFA85FC0EFB178843EA0843D4
:100AC00007FB0CF1994209D9EB1807F1FF3080F0D0
:100AD0001B81994240F21881023F2B445B1AA4B259
:100AE000B3FBFEF00EFB103344EA034400FB0CFCA6
:100AF000A44509D92C1900F1FF3380F00781A445E2
:100B000040F2048102382C4440EA0740A4EB0C0474
:100B100000271EB1D4400023C6E900433946BDE892
:100B2000F0878B4209D9002E00F0EB800027C6E940
:100B3000000138463946BDE8F087B3FA83F7002F45
:100B400047D18B4202D3824200F2FA80841A61EBD1
:100B5000030301209846002EE0D0C6E90048DDE7F7
:100B600002B9FFDEB2FA82F2002A40F08F80491B00
:100B70004FEA154E1FFA85F80127B1FBFEFC230C46
:100B80000EFB1C1143EA014308FB0CF1994207D903
:100B9000EB180CF1FF3002D2994200F2CD8084466E
:100BA000591AA3B2B1FBFEF00EFB101443EA044441
:100BB00008FB00F8A04507D92C1900F1FF3302D239
:100BC000A04500F2B6801846A4EB080440EA0C40A9
:100BD0009FE7C7F1200CBB4022FA0CFE4EEA030E41
:100BE00001FA07F420FA0CF521FA0CF34FEA1E483B
:100BF0002543B3FBF8F92C0C08FB19331FFA8EFAC6
:100C000044EA034309FB0AF49C4202FA07F200FAA1
:100C100007F10BD91EEB030309F1FF3080F0878049
:100C20009C4240F28480A9F1020973441B1BADB2BF
:100C3000B3FBF8F008FB103345EA034400FB0AFA63
:100C4000A24508D91EEB040400F1FF336BD2A24584
:100C500069D90238744440EA0940A0FB0289A4EB38
:100C60000A044C45C2464B4654D351D0002E69D09D
:100C7000B1EB0A0564EB030404FA0CFCFD40FC40F4
:100C80004CEA0505C6E90054002747E7C2F12003F6
:100C900020FA03F7954001FA02F021FA03F34FEA34
:100CA000154E3843010CB3FBFEF71FFA85F80EFB17
:100CB000173341EA034107FB08F38B4204FA02F4BD
:100CC00007D9691807F1FF3C2FD28B422DD9023F7B
:100CD0002944CB1A81B2B3FBFEF00EFB103341EA7C
:100CE000034100FB08F38B4207D9691800F1FF3C70
:100CF00017D28B4215D902382944C91A40EA07474E
:100D00003BE73746304609E70746E7E61846FBE685
:100D10004145ABD2B8EB020A69EB0E02013813462B
:100D2000A4E76046E9E7184695E76746D1E78146BC
:100D30007CE702382C4447E7ACF1020C2B442FE748
:100D4000384608E73746E9E6704700BF034613F820
:100D5000012B002AFBD1181A01387047000000004F
:100D600001F0FF01102A2BDB10F0070F08D010F85C
:100D7000013B013A8B422DD010F0070F42B3F6D160
:100D8000F0B441EA012141EA014122F007047FF079
:100D900000070023F0E80256083C85EA010586EAD0
:100DA000010685FA47F5A3FA87F586FA47F6A5FA0C
:100DB00087F68EB9EED1F0BC01F0FF0102F0070218
:100DC00032B110F8013B013A83EA010313B1F8D1C3
:100DD0000020704701387047002D06BF35460338A4
:100DE000073815F0010F07D1013015F4807F02BFDD
:100DF000013015F4C03F0130F0BC0138704700BF2E
:100E000010B504460E4B18784FF47A73B3FBF0F329
:100E10000C4A1068B0FBF3F000F09CF868B90F2C96
:100E200001D901200AE0002221464FF0FF3000F0F6
:100E30005DF8034B5C60002000E0012010BD00BFA6
:100E4000000000200800002008B50B4B1A6842F48F
:100E500000721A601A6842F480621A601A6842F4DA
:100E600080721A60032000F02FF80020FFF7C8FFFF
:100E700001F09AFD002008BD003C0240034A1168C1
:100E8000034B1B780B441360704700BF9C0000208D
:100E900000000020014B1868704700BF9C00002034
:100EA00038B50446FFF7F6FF0546B4F1FF3F02D020
:100EB000044B1B781C44FFF7EDFF401BA042FAD304
:100EC00038BD00BF00000020074AD36823F4E06368
:100ED0001B041B0C000200F4E060184340F0BF60EC
:100EE00040F40030D060704700ED00E030B4174BA4
:100EF000DB68C3F30223C3F10704042C28BF0424D6
:100F00001D1D062D18D9033B4FF0FF3505FA04F4DB
:100F100021EA0401994005FA03F322EA0303194385
:100F200000280BDB0901C9B200F1604000F5614007
:100F300080F8001330BC70470023E5E700F00F0095
:100F40000901C9B2024B1954F4E700BF00ED00E0FB
:100F500014ED00E00138B0F1807F0AD2064B5860F2
:100F6000064AF02182F823100020986007221A60B8
:100F700070470120704700BF10E000E000ED00E086
:100F800000230F2B00F2D180F0B482B039E00622AA
:100F900000E00022B2403A430234644E46F8242076
:100FA000634A1468EA4302EA04064F6817F4803F74
:100FB00001D045EA04065E4C2660646802EA040635
:100FC0004F6817F4003F01D045EA0406584C6660AC
:100FD000A46802EA04064F6817F4801F01D045EAAE
:100FE0000406534CA660E46822404E6816F4001FC5
:100FF00001D045EA04024E4CE26001330F2B00F2AF
:10100000918001229A400C6804EA0205AA42F4D1B8
:101010004C68022C01D0122C10D1DE08083650F892
:1010200026C003F00704A7000F24BC402CEA040CE0
:101030000C69BC4044EA0C0440F8264004685F0098
:101040000326BE40F64306EA040C4C6804F0030491
:10105000BC4044EA0C0404604C6804F1FF3CBCF161
:10106000010F03D9112C01D0122C10D1846806EA8B
:10107000040CCC68BC4044EA0C048460446824EA54
:1010800002024C68C4F300149C4014434460C268DC
:1010900016408A68BA403243C2604A6812F0805FE4
:1010A000ABD000220192234A546C44F4804454642F
:1010B000526C02F480420192019A9C08A61C1B4AC1
:1010C00052F8267003F0030296000F22B24027EA7E
:1010D0000207194A90423FF45CAF02F580629042E9
:1010E00016D002F58062904214D002F580629042E0
:1010F00012D002F58062904210D002F580629042D8
:101100000ED002F5806290423FF441AF072241E7E2
:1011100001223FE702223DE703223BE7042239E7B1
:10112000052237E702B0F0BC704770470038014035
:10113000003C0140003802400000024012B909049E
:10114000816170478161704703685A6912F4806F4A
:1011500011D06FF480625A6100230363202280F86B
:101160003D2080F83E30026C42F00402026480F8B8
:101170003C300120704700207047F8B506460C4609
:1011800017461D4622E0FFF785FE069BC01AA842BF
:1011900000D8DDB900233363202286F83D2086F88D
:1011A0003E30326C42F02002326486F83C3001203E
:1011B0001AE033685B6924EA03039BB2B3FA83F352
:1011C0005B099F420FD1B5F1FF3FDCD1C4F3074368
:1011D000012BEED033689B6924EA03039BB2B3FA78
:1011E00083F35B09EDE70020F8BDF8B504460D4632
:1011F00016461F463CE01A6842F400721A602368E3
:101200006FF480625A6100232363202284F83D201A
:1012100084F83E30226C42F00402226484F83C30B0
:10122000012033E0FFF736FEC01BB04200D8FEB904
:1012300000232363202284F83D2084F83E30226C72
:1012400042F02002226484F83C3001201EE0236832
:101250005B6925EA03039BB2003318BF0123A3B1E6
:1012600023685A6912F4806FC5D1B6F1FF3FD9D116
:10127000C5F30743012BEAD023689B6925EA0303E2
:101280009BB2003318BF0123E9E70020F8BD00003E
:10129000F0B583B004460F4615461E46C36A082BB8
:1012A0000DD0012B0BD013F5803F08D0036B122B10
:1012B0000AD10268136843F48073136004E0226863
:1012C000136843F48073136000962B4600224FF09E
:1012D00001112046FFF751FF18BB2369B3F5804F7A
:1012E0000DD1236807F0FE071F6133462A461049D7
:1012F0002046FFF77AFF0346A0B1012312E0FB115D
:10130000226803F0060343F0F003136133462A46D4
:1013100008492046FFF769FF38B92368FFB21F610B
:10132000E3E70123184603B0F0BD0123FAE700BF4D
:1013300002000100080001002DE9F04184B00446DC
:101340000D4616461F46C26A01680B6843F4806367
:101350000B60082A0DD0012A0BD012F5803F08D06F
:10136000036B112B0AD10268136843F48073136076
:1013700004E02268136843F48073136000973346D7
:1013800000224FF001112046FFF7F7FE002849D157
:101390002369B3F5804F0FD1236845F00105EDB205
:1013A0001D613B46324623492046FFF71EFF034698
:1013B000002838D0012336E04FEAE51808F0060887
:1013C000236848F0F0021A613B4632461A4920462B
:1013D000FFF70BFF08B1012325E02368EDB21D6183
:1013E0003B46324613492046FFF7FFFE08B1012372
:1013F00019E00022039223685969039199690391C6
:101400000399196841F480711960009733464FF0D1
:1014100001112046FFF7B1FE48B9226848F0F103F8
:101420001361BEE70123184604B0BDE8F081012333
:10143000F9E700BF020001000800010070B5044692
:101440000D46164623685B6913F0800F1CD12046B9
:10145000FFF77AFED0B9B5F1FF3FF3D0FFF71AFDE1
:10146000801BA84201D8002DECD100232363202249
:1014700084F83D2084F83E30226C42F02002226441
:1014800084F83C30012000E0002070BD0120FCE722
:1014900070B504460D46164623685B6913F0040FC9
:1014A0001CD12046FFF750FED0B9B5F1FF3FF3D075
:1014B000FFF7F0FC801BA84201D8002DECD10023DF
:1014C0002363202284F83D2084F83E30226C42F0D1
:1014D0002002226484F83C30012000E0002070BD2E
:1014E0000120FCE770B505460C4616462B685A6984
:1014F00012F0400F29D15A6912F0100F15D1FFF7E1
:10150000C9FC801BA04201D8002CEFD100232B6323
:10151000202285F83D2085F83E302A6C42F02002DA
:101520002A6485F83C30012070BD6FF010025A61CA
:1015300000232B63202285F83D2085F83E302A6C5D
:101540002A6485F83C300120EEE70020ECE700003B
:10155000002800F0BE80F8B5044690F83D30002B1E
:101560006BD0242384F83D302268136823F00103F4
:10157000136000F091FB6268584B9A4262D8584B56
:1015800098428CBF00230123002B40F0A480554BD0
:10159000A3FB00239B0C21684A6822F03F021A43F8
:1015A0004A6025682A6A22F03F0266684B498E42EB
:1015B0004ED8013313432B622568E96921F44F416A
:1015C00021F0FF016368454A93424BD801385B0024
:1015D000B0FBF3F30133C3F30B03042B38BF042335
:1015E0000B43EB6121680B6823F0C003E269206ABA
:1015F000024313430B6021688B6823F4034323F0F9
:10160000FF032269E068024313438B602168CB68C3
:1016100023F0FF036269A06902431343CB60226891
:10162000136843F00103136000202064202384F832
:101630003D30206384F83E00F8BD80F83C3001F076
:10164000D3F98EE7284B98428CBF002301239BE7F8
:101650004FF4967101FB03F32449A1FB03139B098B
:101660000133A7E7A268BAB9461E03EB4307B6FBEE
:10167000F7F60136C6F30B06B6FA86F6760936BBE0
:10168000C2B9013803EB4303B0FBF3F30133C3F3F7
:101690000B0242F40043A3E7461E03EB830707EB6C
:1016A0008707B6FBF7F60136C6F30B06B6FA86F6E1
:1016B0007609E4E7013803EB830303EB8303B0FB14
:1016C000F3F20132C2F30B0242F4404388E70123F4
:1016D00086E7012070470120AEE700BFA086010029
:1016E0007F841E0083DE1B43FF083D00D34D621044
:1016F0002DE9F04184B004460E4690461F46FFF7A0
:10170000C9FB94F83D30DBB2202B04D002263046D2
:1017100004B0BDE8F08105460090192301224F492D
:101720002046FFF72AFD002840F0918094F83C30D5
:10173000012B00F08E80012384F83C3023681A6866
:1017400012F0010F03D11A6842F001021A602268F8
:10175000136823F400631360212384F83D301023C1
:1017600084F83E3000232364C4F824806785638DA9
:1017700023853B4BE3622B460A9A31462046FFF70E
:1017800087FD0646002866D10023039323685A6923
:1017900003929B690393039B12E0236C042B01D0FB
:1017A0000126B4E72268136843F40073136001262E
:1017B000ADE72A460A992046FFF76AFE00282CD199
:1017C000238D002B35D02A460A992046FFF736FE96
:1017D0000028E2D1626A236812781A61616A4B1CA0
:1017E0006362638D013B9BB26385238D013B9BB29A
:1017F00023852268506910F0040FDAD0002BD8D06E
:101800004B781361636A01336362638D013B9BB262
:101810006385238D013B2385CBE7236C042B01D00B
:10182000012674E72268136843F4007313600126ED
:101830006DE72268136843F400731360202384F873
:101840003D30002384F83E3084F83C305FE70226C8
:101850005DE702265BE7012659E700BF02001000A2
:101860000000FFFF2DE9F04186B004460E46904689
:101870001F46FFF70FFB94F83D30DBB2202B04D05E
:101880000226304606B0BDE8F081054600901923D7
:1018900001229E492046FFF770FC002840F0348169
:1018A00094F83C30012B00F03781012384F83C3060
:1018B00023681A6812F0010F03D11A6842F001027E
:1018C0001A602268136823F400631360222384F8EB
:1018D0003D30102384F83E3000232364C4F8248074
:1018E0006785638D23858A4BE3622B460C9A3146CC
:1018F0002046FFF721FD0646002840F00F81238D8A
:101900005BB9029323685A6902929A690292029A19
:101910001A6842F400721A6077E0012B0FD0022B94
:101920001FD02268136843F480631360002305937B
:1019300023685A6905929B690593059B65E02268B7
:10194000136823F4806313600023039323685A69A8
:1019500003929A690392039A1A6842F400721A6019
:1019600053E02268136823F48063136022681368CD
:1019700043F4006313600023049323685A690492BC
:101980009B690493049B40E02A460C992046FFF78C
:10199000A9FD002840F0C48023681A69636A1A70A0
:1019A000636A01336362238D013B2385638D013BB1
:1019B0009BB2638529E000950C9B00225549204687
:1019C000FFF7DBFB002840F0AD802268136843F48A
:1019D0000073136023681A69636A1A70626A531C81
:1019E0006362238D013B2385638D013B9BB263853D
:1019F00023681B695370636A01336362238D013B63
:101A00002385638D013B9BB26385238D002B72D0B0
:101A1000032B49D8012BB7D0022BCCD000950C9BBF
:101A200000223C492046FFF7A8FB00287CD1226811
:101A3000136823F48063136023681A69636A1A7059
:101A4000636A01336362238D013B2385638D013B10
:101A50009BB2638500950C9B00222E492046FFF720
:101A60008CFB002862D12268136843F40073136072
:101A700023681A69636A1A70626A531C6362238D51
:101A8000013B2385638D013B9BB2638523681B6902
:101A90005370636A01336362238D013B2385638D39
:101AA000013B9BB26385B0E72A460C992046FFF7BD
:101AB00019FD00283CD123681A69636A1A70626AAA
:101AC000531C6362238D013B2385638D013B9BB2D5
:101AD00063852368596911F0040F96D01B69537010
:101AE000636A01336362238D013B2385638D013B70
:101AF0009BB2638589E7202384F83D30002384F876
:101B00003E3084F83C30BCE60226BAE60200100003
:101B10000000FFFF040001000226B2E60126B0E645
:101B20000126AEE60126ACE60126AAE60126A8E6D5
:101B30000126A6E6002800F09D8070B504464F4BB4
:101B40001B6803F00F038B4209D2CBB24B4A1370D0
:101B5000136803F00F038B4201D0012070BD23688E
:101B600013F0020F17D013F0040F04D0444A936807
:101B700043F4E0539360236813F0080F04D0404A05
:101B8000936843F4604393603D4A936823F0F00305
:101B9000A068034393600D46236813F0010F32D011
:101BA0006368012B21D09A1E012A25D9344A126874
:101BB00012F0020F60D032498A6822F00302134308
:101BC0008B60FFF767F906462D4B9B6803F00C030B
:101BD0006268B3EB820F16D0FFF75CF9801B41F20D
:101BE00088339842F0D90320B8E7254A126812F4E6
:101BF000003FE0D10120B1E7214A126812F0007FD6
:101C0000D9D10120AAE71D4B1B6803F00F03AB429B
:101C100009D9EAB2194B1A701B6803F00F03AB42E3
:101C200001D001209AE7236813F0040F06D0144A6C
:101C3000936823F4E053E1680B439360236813F047
:101C4000080F07D00E4A936823F46043216943EAE2
:101C5000C103936000F040F8094B9B68C3F3031382
:101C6000084AD35CD840084B18600020FFF7C8F83A
:101C7000002073E70120704701206FE7003C02401D
:101C8000003802404C34000808000020014B18685E
:101C9000704700BF0800002008B5FFF7F7FF044BAE
:101CA0009B68C3F38223034AD35CD84008BD00BFBE
:101CB000003802405C34000808B5FFF7E7FF044B2A
:101CC0009B68C3F34233034AD35CD84008BD00BFCE
:101CD000003802405C3400082DE9F04B5C4B9B68F7
:101CE00003F00C03082B07D00C2B5BD0042B00F067
:101CF000AD805848BDE8F08B554B5A6802F03F0262
:101D00005B6813F4800F2AD0514B5B68C3F38813D0
:101D10001E4600275C010025E41A65EB0705A901B2
:101D200041EA9461A001001B61EB0501CB0043EA8D
:101D30005073C400A01943EB07014B0243EAD05390
:101D40004402204619460023FEF780FE404B5B68A4
:101D5000C3F3014301335B00B0FBF3F0CAE73C4B34
:101D60005B68C3F388131E4600275C010025E41A54
:101D700065EB0705A90141EA9461A001001B61EB35
:101D80000501CB0043EA5073C400A01943EB0701DF
:101D90008B0243EA90538402204619460023FEF743
:101DA00055FED3E72A4B5A6802F03F025B6813F4F2
:101DB000800F28D0264B5B68C3F388131E4600278C
:101DC0005C010025E41A65EB0705A90141EA94616D
:101DD000A001001B61EB0501CB0043EA5073C40076
:101DE000A01943EB07014B0243EAD05344022046BB
:101DF00019460023FEF72AFE154B5B68C3F30273F6
:101E0000B0FBF3F076E7124B5B68C3F388131E4612
:101E100000275C010025E41A65EB0705A90141EAEA
:101E20009461A001001B61EB0501CB0043EA5073F4
:101E3000C400A01943EB07018B0243EA90538402CC
:101E4000204619460023FEF701FED5E7024851E778
:101E5000003802400024F40000127A0070B582B00D
:101E60000446036813F0010F41D0A64B9B6803F0B2
:101E70000C03042B32D0A34B9B6803F00C03082BFC
:101E800027D0A04B9B6803F00C030C2B59D0636840
:101E9000B3F5803F5BD0B3F5A02F5ED0994B1A68A5
:101EA00022F480321A601A6822F480221A60636871
:101EB000002B5CD0FEF7EEFF0546924B1B6813F437
:101EC000003F14D1FEF7E6FF401B6428F5D903203C
:101ED0009DE18C4B5B6813F4800FD2D0894B1B685B
:101EE00013F4003F03D06368002B00F08D8123685A
:101EF00013F0020F67D0834B9B6813F00C0F4AD08E
:101F0000804B9B6803F00C03082B3FD07D4B9B68F4
:101F100003F00C030C2B48D0E368002B74D07A4BF1
:101F200001221A60FEF7B6FF0546764B1B6813F0D8
:101F3000020F60D1FEF7AEFF401B0228F5D9032047
:101F400065E1704B5B6813F4800FA0D0C6E76D4A63
:101F5000136843F480331360A9E76A4B1A6842F4AC
:101F600080221A601A6842F480321A609FE7FEF7F6
:101F700091FF0546634B1B6813F4003FB7D0FEF793
:101F800089FF401B6428F5D9032040E15D4B5B6865
:101F900013F4800FBAD15B4B1B6813F0020F0AD009
:101FA000E368012B07D0012031E1564B5B6813F445
:101FB000800FB1D1EFE7534A136823F0F80321698A
:101FC00043EAC1031360236813F0080F40D063692C
:101FD00063B34E4B01221A60FEF75CFF0546494B86
:101FE0005B6F13F0020F33D1FEF754FF401B022842
:101FF000F5D903200BE1434A136823F0F803216964
:1020000043EAC1031360DEE73F4B00221A60FEF78C
:1020100041FF05463B4B1B6813F0020FD3D0FEF780
:1020200039FF401B0228F5D90320F0E0374B00228E
:102030001A60FEF72FFF0546324B5B6F13F0020F5D
:1020400006D0FEF727FF401B0228F5D90320DEE06B
:10205000236813F0040F79D02A4B1B6C13F0805FB8
:1020600033D100230193274B1A6C42F080521A643B
:102070001B6C03F080530193019B0125244B1B68CB
:1020800013F4807F23D0A368012B34D0052B41D0DB
:102090001C4B1A6F22F001021A671A6F22F0040219
:1020A0001A67A368002B3FD0FEF7F4FE0646154BD7
:1020B0001B6F13F0020F48D1FEF7ECFE801B41F2BC
:1020C00088339842F3D90320A1E00025D6E7104ACF
:1020D000136843F480731360FEF7DCFE06460C4B76
:1020E0001B6813F4807FCED1FEF7D4FE801B02283C
:1020F000F5D903208BE0034A136F43F00103136704
:10210000CFE700BF0038024000004742800E474240
:1021100000700040404B1A6F42F004021A671A6FB9
:1021200042F001021A67BCE7FEF7B4FE06463A4BDE
:102130001B6F13F0020F08D0FEF7ACFE801B41F2BC
:1021400088339842F3D9032061E0E5B9A369002BF5
:102150005CD0314A926802F00C02082A59D0022B56
:1021600017D02E4B00221A60FEF794FE04462A4B2D
:102170001B6813F0007F45D0FEF78CFE001B022881
:10218000F5D9032043E0244A136C23F080531364F1
:10219000DCE7224B00221A60FEF77CFE05461E4B50
:1021A0001B6813F0007F06D0FEF774FE401B022868
:1021B000F5D903202BE0E369226A1343626A43EAFC
:1021C0008213A26A5208013A43EA0243E26A43EAEE
:1021D0000263226B43EA02730F4A53600F4B0122E2
:1021E0001A60FEF757FE04460B4B1B6813F0007F86
:1021F00006D1FEF74FFE001B0228F5D9032006E0AA
:10220000002004E0002002E0012000E0002002B0F5
:1022100070BD0120FBE700BF00380240600047426C
:102220002DE9F84304460268136923F44053C1685A
:102230000B43136183680269134342691343C26904
:102240001A430168CB6823F4164323F00C031343AD
:10225000CB600268536923F4407381690B43536177
:10226000C369B3F5004F60D00368B84A934200F0E9
:10227000148102F58062934200F00F81FFF70CFD9C
:1022800000EB800000EB80006568AD00B0FBF5F569
:10229000AF4FA7FB05356D092E01FFF7FDFC00EBE5
:1022A000800000EB80006568AD00B0FBF5F9FFF73A
:1022B000F3FC00EB800000EB80006568AD00B0FB34
:1022C000F5F5A7FB05356D094FF0640808FB15957A
:1022D0002D013235A7FB05356D0905F0F0053544B4
:1022E000FFF7DAFC00EB800000EB80006668B600C8
:1022F000B0FBF6F6FFF7D0FC00EB800000EB8000AF
:1023000063689B00B0FBF3F0A7FB0030400908FBBB
:1023100010684FEA081808F13208A7FB0837C7F31E
:10232000431723682F449F600DE10368874A934257
:102330005BD002F58062934257D0FFF7ADFC00EB13
:10234000800000EB800065686D00B0FBF5F5804F04
:10235000A7FB05356D092E01FFF79EFC00EB800001
:1023600000EB800065686D00B0FBF5F9FFF794FCA9
:1023700000EB800000EB800065686D00B0FBF5F5B8
:10238000A7FB05356D094FF0640808FB1595ED00B6
:102390003235A7FB05356D096D0005F4F875354438
:1023A000FFF77AFC00EB800000EB800066687600A7
:1023B000B0FBF6F6FFF770FC00EB800000EB80004E
:1023C00063685B00B0FBF3F3A7FB03235B0908FB27
:1023D00013684FEAC80808F13208A7FB0837C7F3AB
:1023E000421723682F449F60ADE0FFF765FC00EBC8
:1023F000800000EB800065686D00B0FBF5F5544F80
:10240000A7FB05356D092E01FFF756FC00EB800098
:1024100000EB800065686D00B0FBF5F9FFF74CFC40
:1024200000EB800000EB800065686D00B0FBF5F507
:10243000A7FB05356D094FF0640808FB1595ED0005
:102440003235A7FB05356D096D0005F4F875354487
:10245000FFF732FC00EB800000EB8000666876003E
:10246000B0FBF6F6FFF728FC00EB800000EB8000E5
:1024700063685B00B0FBF3F3A7FB03235B0908FB76
:1024800013684FEAC80808F13208A7FB0837C7F3FA
:10249000421723682F449F6055E0FFF70DFC00EBC7
:1024A000800000EB80006568AD00B0FBF5F5284FBB
:1024B000A7FB05356D092E01FFF7FEFB00EB800041
:1024C00000EB80006568AD00B0FBF5F9FFF7F4FBA9
:1024D00000EB800000EB80006568AD00B0FBF5F517
:1024E000A7FB05356D094FF0640808FB15952D0114
:1024F0003235A7FB05356D0905F0F0053544FFF7CA
:10250000DBFB00EB800000EB80006668B600B0FBF0
:10251000F6F6FFF7D1FB00EB800000EB800063686C
:102520009B00B0FBF3F0A7FB0030400908FB1068EC
:102530004FEA081808F13208A7FB0837C7F343171A
:1025400023682F449F60BDE8F88300BF001001405E
:102550001F85EB512DE9F04105460F46164698467A
:10256000069C2B681B6837EA03030CBF012300237A
:10257000B3421DD1B4F1FF3FF3D02CB1FEF78AFC7A
:10258000A0EB0800A042ECD92A68D36823F4D073EA
:10259000D3602A68536923F001035361202385F82F
:1025A000393085F83A30002385F83830032000E0D0
:1025B0000020BDE8F08158B310B5044690F83930DA
:1025C0000BB3242384F839302268D36823F40053F2
:1025D000D3602046FFF724FE2268136923F490435A
:1025E00013612268536923F02A0353612268D36878
:1025F00043F40053D3600020E063202384F8393093
:1026000084F83A3010BD80F8383000F027FAD8E767
:10261000012070472DE9F04182B01E4690F8393014
:10262000DBB2202B55D104460D469046002955D0EB
:10263000002A55D090F83830012B53D0012380F870
:1026400038300023C363212380F83930FEF722FCA1
:102650000746A4F82480A4F8268010E000963B46A4
:10266000002280212046FFF775FF00283CD12B88EF
:102670002268C3F3080353602369C3B90235E38CAE
:102680009BB2B3B1E38C013B9BB2E384A368B3F587
:10269000805FE3D000963B46002280212046FFF772
:1026A00059FF18BB2A7823685A600135E7E70135DE
:1026B000E5E700963B46002240212046FFF74AFF0F
:1026C0000346A8B9202284F83920002284F8382053
:1026D00000E00223184602B0BDE8F0810123F9E7CB
:1026E0000123F7E70223F5E70323F3E70323F1E7E9
:1026F0000323EFE730B58BB00024059406940794CC
:10270000089409940194224B1A6B42F004021A6354
:102710001A6B02F004020192019A02941A6B42F0C1
:1027200080021A631A6B02F080020292029A0394EA
:102730001A6B42F001021A631A6B02F00102039253
:10274000039A04941A6B42F002021A631B6B03F0A3
:1027500002030493049B0F4D224620212846FEF7D6
:10276000EDFC4FF4005305930B4B0693079405A91A
:102770000A48FEF705FC20230593012306930794DE
:10278000089405A92846FEF7FBFB0BB030BD00BF3F
:102790000038024000000240000021100008024002
:1027A000FEE7000008B50A480A4B03600A4B436085
:1027B00000238360C3604FF4804202614361836100
:1027C000C3610362FEF7C4FE00B908BDFFF7E8FF6E
:1027D000A000002000540040A086010008B50A486F
:1027E0000A4B03604FF4E133436000238360C3600E
:1027F00003610C2242618361C361FFF7DCFE00B913
:1028000008BDFFF7CDFF00BFF400002000440040EA
:1028100000B595B03422002107A800F0FDF900238F
:102820000293039304930593069300931F4A116C3C
:1028300041F080511164126C02F080520092009AB3
:1028400001931B490A6822F4404242F480420A6024
:102850000A6802F440420192019A02220792012181
:102860000A9110210B910D920E930F914FF4A873C2
:102870001093042311931292139207A8FFF7EEFA14
:1028800080B90F23029302210391002304934FF494
:1028900080520592069302A8FFF74CF920B915B0B3
:1028A0005DF804FBFFF77CFFFFF77AFF003802407A
:1028B0000070004000B587B0FEF7C6FAFFF7A8FF2A
:1028C000FFF718FFFFF76EFFFFF788FF42E04FF0BA
:1028D000FF330093022303AA90212C48FEF7C2FF86
:1028E00000284CD19DF80C309DF80D00000940EAFD
:1028F0000310B0F5006F03DB6FEA00506FEA105071
:10290000FDF7D8FD0022224BFDF73EFEFEF74EF804
:10291000DFED207A07EE100A67EE277AFCEEE77A01
:1029200017EE903A1C4AA2FB03125209642101FBE4
:1029300012331A4903A800F077F903A8FEF706FA44
:102940004FF0FF3382B203A91548FFF763FE6420FE
:10295000FEF7A6FA06AA002302F80C3D4FF0FF335B
:102960000093012390210948FEF7C2FE0028AED053
:1029700003AB0C4A92E8030083E80300DDE703ABF6
:10298000084A92E8030083E80300D6E7A00000208D
:102990000000B03F0000C8421F85EB516C340008B6
:1029A000F40000206434000800B583B000210091D9
:1029B0000C4B5A6C42F480425A645A6C02F48042C6
:1029C0000092009A01911A6C42F080521A641B6CBA
:1029D00003F080530193019B0720FEF775FA03B0C3
:1029E0005DF804FB0038024030B589B00023039342
:1029F00004930593069307930268154B9A4201D0FE
:102A000009B030BD00250195124C236B43F0020341
:102A10002363236B03F002030193019B4FF4407384
:102A200003931223049301230593032306930423A2
:102A3000079303A90848FEF7A3FA0295236C43F411
:102A400000132364236C03F400130293029BD7E763
:102A500000540040003802400004024000B589B034
:102A60000023039304930593069307930268164B80
:102A70009A4202D009B05DF804FB0021019103F5F0
:102A8000FA331A6C42F400321A641A6C02F40032FF
:102A90000192019A02911A6B42F001021A631B6BB8
:102AA00003F001030293029B0C230393022304937C
:102AB00001230593032306930723079303A90348E0
:102AC000FEF75EFAD6E700BF004400400000024077
:102AD0007047FEE7FEE7FEE7FEE770477047704786
:102AE00008B5FEF7CBF908BD08B503460B4A1268D6
:102AF00042B10A4A106803446A46934206D8074A1C
:102B0000136008BD054A06491160F2E700F05AF863
:102B10000C2303604FF0FF30F3E700BF8C00002070
:102B2000380100200F49D1F8883043F47003C1F810
:102B300088300D4B1A6842F001021A60002098603C
:102B40001A6822F0847222F480321A60074A5A60AE
:102B50001A6822F480221A60D8604FF000638B60FC
:102B6000704700BF00ED00E0003802401030002444
:102B7000DFF834D0002103E00C4B5B5843500431A4
:102B80000B480C4B42189A42F6D30B4A02E0002342
:102B900042F8043B094B9A42F9D3FFF7C3FF00F018
:102BA00017F8FFF787FE704700000220BC340008CA
:102BB000000000207000002070000020380100207C
:102BC000FEE70000014B1868704700BF0C000020B2
:102BD00070B50D4E0D4CA41BA4100025A54209D1C3
:102BE0000B4E0C4C00F026FCA41BA4100025A542A3
:102BF00005D170BD56F8253098470135EEE756F8F7
:102C0000253098470135F2E7B4340008B4340008A1
:102C1000B4340008B834000802440346934200D19B
:102C2000704703F8011BF9E70EB400B59CB01DAB6B
:102C3000029006906FF000410948079104910949FC
:102C400053F8042B05910068019302A900F066F87F
:102C5000029B00221A701CB05DF804EB03B07047B1
:102C60000C0000200802FFFF2DE9F0478E689E420D
:102C700082460C469046994637D88A8912F4906F5E
:102C800031D0256809696F1A6569022305EB45058E
:102C900095FBF3F509F101033B449D4238BF1D4606
:102CA000530530D5294600F02BFB064650B90C23BE
:102CB000CAF80030A38943F04003A3814FF0FF30EE
:102CC000BDE8F0873A46216900F0A8FAA38923F409
:102CD000906343F08003A381266165613E44ED1B50
:102CE0002660A5604E464E4500D94E4632464146C6
:102CF000206800F09EFAA3689B1BA36023681E4413
:102D000026600020DCE72A4600F054FB0646002837
:102D1000E2D12169504600F0A5FAC8E72DE9F04F4D
:102D20001D468B891F069DB080460C4616460FD562
:102D30000B696BB9402100F0E3FA2060206128B9EB
:102D40000C23C8F800304FF0FF30C8E04023636127
:102D50000023099320238DF8293030238DF82A3061
:102D600003954FF0010B37463D4615F8013B0BB17B
:102D7000252B3ED1B7EB060A0BD0534632462146EF
:102D80004046FFF771FF013000F0A480099B5344D7
:102D900009933B78002B00F09D8000234FF0FF3219
:102DA000CDE90523049307938DF853301A932F46EA
:102DB000052217F8011B5048FDF7D2FF049BD0B93C
:102DC000D90644BF20228DF853201A0744BF2B2276
:102DD0008DF853202A782A2A15D0079A2F460020EA
:102DE0000A25394611F8013B303B092B4DD9B8B1C2
:102DF0000FE02F46B8E7404A801A0BFA00F018435C
:102E000004903D46D3E7039A111D12680391002AEE
:102E100001DB079204E0524243F00203079204935D
:102E20003B782E2B0CD17B782A2B33D1039B1A1D98
:102E30001B680392002BB8BF4FF0FF330237059396
:102E40002E4D397803222846FDF78AFF38B14023FA
:102E5000401B03FA00F0049B0343013704933978C5
:102E600027488DF8281006227E1CFDF779FF0028E0
:102E700038D0244B13BB039B073323F007030833DD
:102E80000393099B4B4409936DE705FB0232012034
:102E90000F46A6E700230137059319460A25384651
:102EA00010F8012B303A092A03D9002BC8D005911C
:102EB000C6E705FB012101230746F0E703AB0093BA
:102EC0002246114B04A94046AFF30080B0F1FF3F0A
:102ED0008146D6D1A3895B063FF535AF09981DB071
:102EE000BDE8F08F03AB00932246074B04A9404690
:102EF00000F082F8EAE700BF783400087E3400086A
:102F00008234000800000000692C00082DE9F04719
:102F100091461F468A680B69DDF820809342B8BF4E
:102F20001346C9F8003091F8432006460C4612B10A
:102F30000133C9F800302368990642BFD9F8003040
:102F40000233C9F80030256815F0060507D104F1F1
:102F5000190AE368D9F800209B1AAB4228DC94F8E0
:102F600043302268003318BF012392062DD404F1A8
:102F7000430239463046C047013020D02368E56817
:102F8000D9F8002003F00603042B08BFAD1AA3688C
:102F900022690CBF25EAE57500259342C4BF9B1A40
:102FA000ED184FF000091A344D451AD1002008E001
:102FB0000123524639463046C047013003D14FF015
:102FC000FF30BDE8F0870135C3E7E1185A1C302017
:102FD00081F84300224494F8451082F843100233EC
:102FE000C5E70123224639463046C0470130E6D0C6
:102FF00009F10109D8E700002DE9F04301F1430C84
:103000000C46097E85B06E291746064698460C9AEE
:1030100000F0B38022D8632936D00AD8002900F006
:10302000B980582900F0838004F1420584F84210E9
:1030300032E0642901D06929F6D1206813680506B9
:1030400003F104012AD51B681160002B03DA2D223D
:103050005B4284F843206F480A2239E0732900F06C
:103060009D8008D86F2920D07029DDD1236843F0D6
:103070002003236003E0752917D07829D4D1782361
:1030800084F84530644855E01368191D1B681160C9
:1030900004F1420584F8423001238CE01B68116082
:1030A00010F0400F18BF1BB2CFE713682568181D3A
:1030B0001060280601D51B6802E06806FBD51B8856
:1030C00054486F2914BF0A220822002184F84310B3
:1030D0006568A560002DC0F29580216821F004018B
:1030E0002160002B3DD1002D40F08E806546082ADE
:1030F0000BD12368DB0708D5236962689A42DEBFDB
:10310000302305F8013C05F1FF35ACEB05032361E5
:10311000CDF800803B4603AA21463046FFF7F6FE75
:1031200001304DD14FF0FF3005B0BDE8F083394894
:1031300084F84510136821681D1D1B6815600A0678
:103140000BD5CA0744BF41F0200121601BB922689A
:1031500022F0200222601022B7E74D0648BF9BB242
:10316000EFE76546B3FBF2F102FB1133C35C05F8F0
:10317000013D0B460029F5D1B9E71368256861695F
:10318000181D106028061B6801D5196002E06A0648
:10319000FBD51980002323616546B9E71368191D23
:1031A00011601D68626800212846FDF7D9FD08B14D
:1031B000401B606063682361002384F84330A7E705
:1031C00023692A4639463046C0470130AAD02368D1
:1031D0009B0713D4E068039B9842B8BF1846A3E747
:1031E00001234A4639463046C04701309AD001355E
:1031F000E368039A9B1AAB42F2DCEBE7002504F18B
:103200001909F5E7002BACD1037884F8423004F1BA
:1032100042056CE7893400089A34000810B5431E53
:103220000A44914200D110BD11F8014B03F8014F3F
:10323000F7E7884210B501EB020307D8421E994216
:103240000AD011F8014B02F8014FF8E78342F5D993
:103250008118D21AD34200D110BD13F8014D01F8E4
:10326000014DF7E738B50546002945D051F8043C33
:103270000C1F002BB8BFE41800F0D2F81F4A1368E7
:10328000104633B9636014602846BDE8384000F04A
:10329000C8B8A3420CD921686218934204BF1A68C7
:1032A0005B68636004BF521822600460ECE7134659
:1032B0005A680AB1A242FAD919685818A0420BD12B
:1032C00020680144581882421960DDD110685268A4
:1032D0005A6001441960D7E702D90C232B60D3E769
:1032E000206821188A4204BF11685268626004BFD6
:1032F000091821605C60C7E738BD00BF940000205A
:1033000070B5CD1C25F0030508350C2D38BF0C25F4
:10331000002D064601DBA94203D90C2333600020AF
:1033200070BD00F07DF8214A1468214691B9204C07
:1033300023681BB9304600F063F820602946304608
:1033400000F05EF8431C24D10C233360304600F0BB
:1033500068F8E4E70B685B1B18D40B2B0FD90B60E4
:10336000CD50CC18304600F05CF804F10B00231D62
:1033700020F00700C31AD3D05A42E250D0E78C4263
:103380004B6816BF636013600C46EBE70C46496858
:10339000CCE7C41C24F00304A04205D0211A304617
:1033A00000F02EF80130CFD02560DBE7940000203C
:1033B00098000020F8B5074614460E4621B911467C
:1033C000BDE8F840FFF79CBF22B9FFF74BFF254649
:1033D0002846F8BD00F026F8A0420FD22146384614
:1033E000FFF78EFF05460028F2D031462246FFF750
:1033F00015FF31463846FFF735FFE9E73546E7E781
:1034000038B5064C0023054608462360FFF76CFBE1
:10341000431C02D1236803B12B6038BD3401002066
:103420007047704751F8043C181F002BBCBF0B5865
:10343000C0187047F8B500BFF8BC08BC9E4670477E
:0C344000F8B500BFF8BC08BC9E46704701
:10344C000000000000000000010203040607080948
:10345C0000000000010203044572726F720D0A0035
:10346C0025752E257520430D0A000000232D302BC9
:10347C002000686C4C006566674546470030313269
:10348C0033343536373839414243444546003031C0
:10349C00323334353637383961626364656600001F
:0834AC00D0D5FF7F01000000F4
:0434B400F501000816
:0434B800D101000836
:1034BC0001000000100000000024F40010000020A7
:1034CC0000000000000000000000000000000000F0
:1034DC0000000000000000000000000000000000E0
:1034EC0000000000000000000000000000000000D0
:1034FC0000000000000000000000000000000000C0
:10350C0000000000000000000000000000000000AF
:10351C00000000000000000000000000000000009F
:0400000508002B7153
:00000001FF
